{
  "contractName": "Rewards",
  "abi": [
    {
      "inputs": [
        {
          "internalType": "address",
          "name": "_tokenAddress",
          "type": "address"
        },
        {
          "internalType": "uint256",
          "name": "_startRewards",
          "type": "uint256"
        }
      ],
      "stateMutability": "nonpayable",
      "type": "constructor"
    },
    {
      "anonymous": false,
      "inputs": [
        {
          "indexed": true,
          "internalType": "address",
          "name": "previousOwner",
          "type": "address"
        },
        {
          "indexed": true,
          "internalType": "address",
          "name": "newOwner",
          "type": "address"
        }
      ],
      "name": "OwnershipTransferred",
      "type": "event"
    },
    {
      "anonymous": false,
      "inputs": [
        {
          "indexed": false,
          "internalType": "uint256",
          "name": "rewardRate",
          "type": "uint256"
        },
        {
          "indexed": false,
          "internalType": "uint256",
          "name": "duration",
          "type": "uint256"
        }
      ],
      "name": "RewardAmountSet",
      "type": "event"
    },
    {
      "anonymous": false,
      "inputs": [
        {
          "indexed": true,
          "internalType": "address",
          "name": "user",
          "type": "address"
        },
        {
          "indexed": false,
          "internalType": "uint256",
          "name": "rewardsClaimed",
          "type": "uint256"
        }
      ],
      "name": "RewardsClaimed",
      "type": "event"
    },
    {
      "anonymous": false,
      "inputs": [
        {
          "indexed": true,
          "internalType": "address",
          "name": "user",
          "type": "address"
        },
        {
          "indexed": false,
          "internalType": "uint256",
          "name": "amountStaked",
          "type": "uint256"
        }
      ],
      "name": "Staked",
      "type": "event"
    },
    {
      "anonymous": false,
      "inputs": [
        {
          "indexed": true,
          "internalType": "address",
          "name": "user",
          "type": "address"
        },
        {
          "indexed": false,
          "internalType": "uint256",
          "name": "amountWithdrawn",
          "type": "uint256"
        }
      ],
      "name": "Withdrawn",
      "type": "event"
    },
    {
      "inputs": [],
      "name": "lastRewardTimestamp",
      "outputs": [
        {
          "internalType": "uint256",
          "name": "",
          "type": "uint256"
        }
      ],
      "stateMutability": "view",
      "type": "function",
      "constant": true
    },
    {
      "inputs": [],
      "name": "lastUpdateTime",
      "outputs": [
        {
          "internalType": "uint256",
          "name": "",
          "type": "uint256"
        }
      ],
      "stateMutability": "view",
      "type": "function",
      "constant": true
    },
    {
      "inputs": [],
      "name": "owner",
      "outputs": [
        {
          "internalType": "address",
          "name": "",
          "type": "address"
        }
      ],
      "stateMutability": "view",
      "type": "function",
      "constant": true
    },
    {
      "inputs": [],
      "name": "renounceOwnership",
      "outputs": [],
      "stateMutability": "nonpayable",
      "type": "function"
    },
    {
      "inputs": [],
      "name": "rewardPerTokenStored",
      "outputs": [
        {
          "internalType": "uint256",
          "name": "",
          "type": "uint256"
        }
      ],
      "stateMutability": "view",
      "type": "function",
      "constant": true
    },
    {
      "inputs": [],
      "name": "rewardRate",
      "outputs": [
        {
          "internalType": "uint256",
          "name": "",
          "type": "uint256"
        }
      ],
      "stateMutability": "view",
      "type": "function",
      "constant": true
    },
    {
      "inputs": [
        {
          "internalType": "address",
          "name": "",
          "type": "address"
        }
      ],
      "name": "rewards",
      "outputs": [
        {
          "internalType": "uint256",
          "name": "",
          "type": "uint256"
        }
      ],
      "stateMutability": "view",
      "type": "function",
      "constant": true
    },
    {
      "inputs": [],
      "name": "rewardsDuration",
      "outputs": [
        {
          "internalType": "uint256",
          "name": "",
          "type": "uint256"
        }
      ],
      "stateMutability": "view",
      "type": "function",
      "constant": true
    },
    {
      "inputs": [],
      "name": "startRewardsTime",
      "outputs": [
        {
          "internalType": "uint256",
          "name": "",
          "type": "uint256"
        }
      ],
      "stateMutability": "view",
      "type": "function",
      "constant": true
    },
    {
      "inputs": [],
      "name": "token",
      "outputs": [
        {
          "internalType": "contract IERC20",
          "name": "",
          "type": "address"
        }
      ],
      "stateMutability": "view",
      "type": "function",
      "constant": true
    },
    {
      "inputs": [
        {
          "internalType": "address",
          "name": "newOwner",
          "type": "address"
        }
      ],
      "name": "transferOwnership",
      "outputs": [],
      "stateMutability": "nonpayable",
      "type": "function"
    },
    {
      "inputs": [
        {
          "internalType": "address",
          "name": "",
          "type": "address"
        }
      ],
      "name": "userRewardPerTokenPaid",
      "outputs": [
        {
          "internalType": "uint256",
          "name": "",
          "type": "uint256"
        }
      ],
      "stateMutability": "view",
      "type": "function",
      "constant": true
    },
    {
      "inputs": [
        {
          "internalType": "address",
          "name": "account",
          "type": "address"
        }
      ],
      "name": "balanceOf",
      "outputs": [
        {
          "internalType": "uint256",
          "name": "",
          "type": "uint256"
        }
      ],
      "stateMutability": "view",
      "type": "function",
      "constant": true
    },
    {
      "inputs": [],
      "name": "totalStaked",
      "outputs": [
        {
          "internalType": "uint256",
          "name": "",
          "type": "uint256"
        }
      ],
      "stateMutability": "view",
      "type": "function",
      "constant": true
    },
    {
      "inputs": [],
      "name": "totalClaimed",
      "outputs": [
        {
          "internalType": "uint256",
          "name": "",
          "type": "uint256"
        }
      ],
      "stateMutability": "view",
      "type": "function",
      "constant": true
    },
    {
      "inputs": [],
      "name": "rewardPerToken",
      "outputs": [
        {
          "internalType": "uint256",
          "name": "",
          "type": "uint256"
        }
      ],
      "stateMutability": "view",
      "type": "function",
      "constant": true
    },
    {
      "inputs": [
        {
          "internalType": "address",
          "name": "account",
          "type": "address"
        }
      ],
      "name": "earned",
      "outputs": [
        {
          "internalType": "uint256",
          "name": "",
          "type": "uint256"
        }
      ],
      "stateMutability": "view",
      "type": "function",
      "constant": true
    },
    {
      "inputs": [
        {
          "internalType": "uint256",
          "name": "_amount",
          "type": "uint256"
        }
      ],
      "name": "stake",
      "outputs": [],
      "stateMutability": "nonpayable",
      "type": "function"
    },
    {
      "inputs": [
        {
          "internalType": "uint256",
          "name": "_amount",
          "type": "uint256"
        }
      ],
      "name": "withdraw",
      "outputs": [],
      "stateMutability": "nonpayable",
      "type": "function"
    },
    {
      "inputs": [],
      "name": "getReward",
      "outputs": [],
      "stateMutability": "nonpayable",
      "type": "function"
    },
    {
      "inputs": [],
      "name": "exit",
      "outputs": [],
      "stateMutability": "nonpayable",
      "type": "function"
    },
    {
      "inputs": [
        {
          "internalType": "uint256",
          "name": "reward",
          "type": "uint256"
        },
        {
          "internalType": "uint256",
          "name": "_rewardsDuration",
          "type": "uint256"
        }
      ],
      "name": "setRewardAmount",
      "outputs": [],
      "stateMutability": "nonpayable",
      "type": "function"
    }
  ],
  "bytecode": "0x608060405260006002556301e13380600355600060085560006009553480156200002857600080fd5b5060405162001eb638038062001eb683398181016040528101906200004e9190620001b8565b6200006e62000062620000be60201b60201c565b620000c660201b60201c565b81600160006101000a81548173ffffffffffffffffffffffffffffffffffffffff021916908373ffffffffffffffffffffffffffffffffffffffff1602179055508060048190555050506200026b565b600033905090565b60008060009054906101000a900473ffffffffffffffffffffffffffffffffffffffff169050816000806101000a81548173ffffffffffffffffffffffffffffffffffffffff021916908373ffffffffffffffffffffffffffffffffffffffff1602179055508173ffffffffffffffffffffffffffffffffffffffff168173ffffffffffffffffffffffffffffffffffffffff167f8be0079c531659141344cd1fd0a4f28419497f9722a3daafe3b4186f6b6457e060405160405180910390a35050565b6000815190506200019b8162000237565b92915050565b600081519050620001b28162000251565b92915050565b60008060408385031215620001cc57600080fd5b6000620001dc858286016200018a565b9250506020620001ef85828601620001a1565b9150509250929050565b600062000206826200020d565b9050919050565b600073ffffffffffffffffffffffffffffffffffffffff82169050919050565b6000819050919050565b6200024281620001f9565b81146200024e57600080fd5b50565b6200025c816200022d565b81146200026857600080fd5b50565b611c3b806200027b6000396000f3fe608060405234801561001057600080fd5b50600436106101415760003560e01c80638b876347116100b8578063d54ad2a11161007c578063d54ad2a114610340578063df136d651461035e578063e9fad8ee1461037c578063f2fde38b14610386578063f8077fae146103a2578063fc0c546a146103c057610141565b80638b8763471461029a5780638da5cb5b146102ca578063a694fc3a146102e8578063c8f33c9114610304578063cd3daf9d1461032257610141565b80633d18b9121161010a5780633d18b912146101fe5780635359b3ea1461020857806370a0823114610224578063715018a6146102545780637b0a47ee1461025e578063817b1cd21461027c57610141565b80628cc262146101465780630700037d1461017657806323b80449146101a65780632e1a7d4d146101c4578063386a9525146101e0575b600080fd5b610160600480360381019061015b9190611515565b6103de565b60405161016d919061184a565b60405180910390f35b610190600480360381019061018b9190611515565b6104e0565b60405161019d919061184a565b60405180910390f35b6101ae6104f8565b6040516101bb919061184a565b60405180910390f35b6101de60048036038101906101d99190611567565b6104fe565b005b6101e86107d4565b6040516101f5919061184a565b60405180910390f35b6102066107da565b005b610222600480360381019061021d91906115b9565b610aaa565b005b61023e60048036038101906102399190611515565b610db6565b60405161024b919061184a565b60405180910390f35b61025c610dff565b005b610266610e87565b604051610273919061184a565b60405180910390f35b610284610e8d565b604051610291919061184a565b60405180910390f35b6102b460048036038101906102af9190611515565b610e97565b6040516102c1919061184a565b60405180910390f35b6102d2610eaf565b6040516102df91906116f4565b60405180910390f35b61030260048036038101906102fd9190611567565b610ed8565b005b61030c6111b0565b604051610319919061184a565b60405180910390f35b61032a6111b6565b604051610337919061184a565b60405180910390f35b610348611231565b604051610355919061184a565b60405180910390f35b61036661123b565b604051610373919061184a565b60405180910390f35b610384611241565b005b6103a0600480360381019061039b9190611515565b611293565b005b6103aa61138b565b6040516103b7919061184a565b60405180910390f35b6103c8611391565b6040516103d5919061176f565b60405180910390f35b6000600b60008373ffffffffffffffffffffffffffffffffffffffff1673ffffffffffffffffffffffffffffffffffffffff16815260200190815260200160002054670de0b6b3a7640000600a60008573ffffffffffffffffffffffffffffffffffffffff1673ffffffffffffffffffffffffffffffffffffffff168152602001908152602001600020546104716111b6565b61047b9190611980565b600c60008673ffffffffffffffffffffffffffffffffffffffff1673ffffffffffffffffffffffffffffffffffffffff168152602001908152602001600020546104c59190611926565b6104cf91906118f5565b6104d9919061189f565b9050919050565b600b6020528060005260406000206000915090505481565b60045481565b336105076111b6565b6007819055506105156113b7565b600581905550600073ffffffffffffffffffffffffffffffffffffffff168173ffffffffffffffffffffffffffffffffffffffff16146105e257610558816103de565b600b60008373ffffffffffffffffffffffffffffffffffffffff1673ffffffffffffffffffffffffffffffffffffffff16815260200190815260200160002081905550600754600a60008373ffffffffffffffffffffffffffffffffffffffff1673ffffffffffffffffffffffffffffffffffffffff168152602001908152602001600020819055505b60008211610625576040517f08c379a000000000000000000000000000000000000000000000000000000000815260040161061c9061182a565b60405180910390fd5b81600860008282546106379190611980565b9250508190555081600c60003373ffffffffffffffffffffffffffffffffffffffff1673ffffffffffffffffffffffffffffffffffffffff168152602001908152602001600020600082825461068d9190611980565b92505081905550600160009054906101000a900473ffffffffffffffffffffffffffffffffffffffff1673ffffffffffffffffffffffffffffffffffffffff1663a9059cbb33846040518363ffffffff1660e01b81526004016106f1929190611746565b602060405180830381600087803b15801561070b57600080fd5b505af115801561071f573d6000803e3d6000fd5b505050506040513d601f19601f82011682018060405250810190610743919061153e565b610782576040517f08c379a0000000000000000000000000000000000000000000000000000000008152600401610779906117aa565b60405180910390fd5b3373ffffffffffffffffffffffffffffffffffffffff167f7084f5476618d8e60b11ef0d7d3f06914655adb8793e28ff7f018d4c76d505d5836040516107c8919061184a565b60405180910390a25050565b60035481565b336107e36111b6565b6007819055506107f16113b7565b600581905550600073ffffffffffffffffffffffffffffffffffffffff168173ffffffffffffffffffffffffffffffffffffffff16146108be57610834816103de565b600b60008373ffffffffffffffffffffffffffffffffffffffff1673ffffffffffffffffffffffffffffffffffffffff16815260200190815260200160002081905550600754600a60008373ffffffffffffffffffffffffffffffffffffffff1673ffffffffffffffffffffffffffffffffffffffff168152602001908152602001600020819055505b6000600b60003373ffffffffffffffffffffffffffffffffffffffff1673ffffffffffffffffffffffffffffffffffffffff1681526020019081526020016000205490506000811115610aa6576000600b60003373ffffffffffffffffffffffffffffffffffffffff1673ffffffffffffffffffffffffffffffffffffffff168152602001908152602001600020819055508060096000828254610962919061189f565b92505081905550600160009054906101000a900473ffffffffffffffffffffffffffffffffffffffff1673ffffffffffffffffffffffffffffffffffffffff1663a9059cbb33836040518363ffffffff1660e01b81526004016109c6929190611746565b602060405180830381600087803b1580156109e057600080fd5b505af11580156109f4573d6000803e3d6000fd5b505050506040513d601f19601f82011682018060405250810190610a18919061153e565b610a57576040517f08c379a0000000000000000000000000000000000000000000000000000000008152600401610a4e906117aa565b60405180910390fd5b3373ffffffffffffffffffffffffffffffffffffffff167ffc30cddea38e2bf4d6ea7d3f9ed3b6ad7f176419f4963bd81318067a4aee73fe82604051610a9d919061184a565b60405180910390a25b5050565b610ab26113d4565b73ffffffffffffffffffffffffffffffffffffffff16610ad0610eaf565b73ffffffffffffffffffffffffffffffffffffffff1614610b26576040517f08c379a0000000000000000000000000000000000000000000000000000000008152600401610b1d906117ca565b60405180910390fd5b6000610b306111b6565b600781905550610b3e6113b7565b600581905550600073ffffffffffffffffffffffffffffffffffffffff168173ffffffffffffffffffffffffffffffffffffffff1614610c0b57610b81816103de565b600b60008373ffffffffffffffffffffffffffffffffffffffff1673ffffffffffffffffffffffffffffffffffffffff16815260200190815260200160002081905550600754600a60008373ffffffffffffffffffffffffffffffffffffffff1673ffffffffffffffffffffffffffffffffffffffff168152602001908152602001600020819055505b8160038190555060035483610c2091906118f5565b6002819055506000600854600160009054906101000a900473ffffffffffffffffffffffffffffffffffffffff1673ffffffffffffffffffffffffffffffffffffffff166370a08231306040518263ffffffff1660e01b8152600401610c8691906116f4565b60206040518083038186803b158015610c9e57600080fd5b505afa158015610cb2573d6000803e3d6000fd5b505050506040513d601f19601f82011682018060405250810190610cd69190611590565b610ce09190611980565b905060035481610cf091906118f5565b6002541115610d34576040517f08c379a0000000000000000000000000000000000000000000000000000000008152600401610d2b9061180a565b60405180910390fd5b42600581905550600454421015610d6057600354600454610d55919061189f565b600681905550610d75565b60035442610d6e919061189f565b6006819055505b7f53ec5ac14ec827c0859f27c3d22f4ea8c29f6d64cbe2f92aeb55210ce6f89b3560025484604051610da8929190611865565b60405180910390a150505050565b6000600c60008373ffffffffffffffffffffffffffffffffffffffff1673ffffffffffffffffffffffffffffffffffffffff168152602001908152602001600020549050919050565b610e076113d4565b73ffffffffffffffffffffffffffffffffffffffff16610e25610eaf565b73ffffffffffffffffffffffffffffffffffffffff1614610e7b576040517f08c379a0000000000000000000000000000000000000000000000000000000008152600401610e72906117ca565b60405180910390fd5b610e8560006113dc565b565b60025481565b6000600854905090565b600a6020528060005260406000206000915090505481565b60008060009054906101000a900473ffffffffffffffffffffffffffffffffffffffff16905090565b33610ee16111b6565b600781905550610eef6113b7565b600581905550600073ffffffffffffffffffffffffffffffffffffffff168173ffffffffffffffffffffffffffffffffffffffff1614610fbc57610f32816103de565b600b60008373ffffffffffffffffffffffffffffffffffffffff1673ffffffffffffffffffffffffffffffffffffffff16815260200190815260200160002081905550600754600a60008373ffffffffffffffffffffffffffffffffffffffff1673ffffffffffffffffffffffffffffffffffffffff168152602001908152602001600020819055505b60008211610fff576040517f08c379a0000000000000000000000000000000000000000000000000000000008152600401610ff6906117ea565b60405180910390fd5b8160086000828254611011919061189f565b9250508190555081600c60003373ffffffffffffffffffffffffffffffffffffffff1673ffffffffffffffffffffffffffffffffffffffff1681526020019081526020016000206000828254611067919061189f565b92505081905550600160009054906101000a900473ffffffffffffffffffffffffffffffffffffffff1673ffffffffffffffffffffffffffffffffffffffff166323b872dd3330856040518463ffffffff1660e01b81526004016110cd9392919061170f565b602060405180830381600087803b1580156110e757600080fd5b505af11580156110fb573d6000803e3d6000fd5b505050506040513d601f19601f8201168201806040525081019061111f919061153e565b61115e576040517f08c379a0000000000000000000000000000000000000000000000000000000008152600401611155906117aa565b60405180910390fd5b3373ffffffffffffffffffffffffffffffffffffffff167f9e71bc8eea02a63969f509818f2dafb9254532904319f9dbda79b67bd34a5f3d836040516111a4919061184a565b60405180910390a25050565b60055481565b60008060085414806111c9575060045442105b156111d7576000905061122e565b600854670de0b6b3a76400006111eb6114a0565b6111f36113b7565b6111fd9190611980565b60025461120a9190611926565b6112149190611926565b61121e91906118f5565b60075461122b919061189f565b90505b90565b6000600954905090565b60075481565b611289600c60003373ffffffffffffffffffffffffffffffffffffffff1673ffffffffffffffffffffffffffffffffffffffff168152602001908152602001600020546104fe565b6112916107da565b565b61129b6113d4565b73ffffffffffffffffffffffffffffffffffffffff166112b9610eaf565b73ffffffffffffffffffffffffffffffffffffffff161461130f576040517f08c379a0000000000000000000000000000000000000000000000000000000008152600401611306906117ca565b60405180910390fd5b600073ffffffffffffffffffffffffffffffffffffffff168173ffffffffffffffffffffffffffffffffffffffff16141561137f576040517f08c379a00000000000000000000000000000000000000000000000000000000081526004016113769061178a565b60405180910390fd5b611388816113dc565b50565b60065481565b600160009054906101000a900473ffffffffffffffffffffffffffffffffffffffff1681565b60006006544210156113cb574290506113d1565b60065490505b90565b600033905090565b60008060009054906101000a900473ffffffffffffffffffffffffffffffffffffffff169050816000806101000a81548173ffffffffffffffffffffffffffffffffffffffff021916908373ffffffffffffffffffffffffffffffffffffffff1602179055508173ffffffffffffffffffffffffffffffffffffffff168173ffffffffffffffffffffffffffffffffffffffff167f8be0079c531659141344cd1fd0a4f28419497f9722a3daafe3b4186f6b6457e060405160405180910390a35050565b600060055460045411156114b85760045490506114be565b60055490505b90565b6000813590506114d081611bc0565b92915050565b6000815190506114e581611bd7565b92915050565b6000813590506114fa81611bee565b92915050565b60008151905061150f81611bee565b92915050565b60006020828403121561152757600080fd5b6000611535848285016114c1565b91505092915050565b60006020828403121561155057600080fd5b600061155e848285016114d6565b91505092915050565b60006020828403121561157957600080fd5b6000611587848285016114eb565b91505092915050565b6000602082840312156115a257600080fd5b60006115b084828501611500565b91505092915050565b600080604083850312156115cc57600080fd5b60006115da858286016114eb565b92505060206115eb858286016114eb565b9150509250929050565b6115fe816119b4565b82525050565b61160d816119fc565b82525050565b600061162060268361188e565b915061162b82611a7e565b604082019050919050565b600061164360158361188e565b915061164e82611acd565b602082019050919050565b600061166660208361188e565b915061167182611af6565b602082019050919050565b600061168960158361188e565b915061169482611b1f565b602082019050919050565b60006116ac603c8361188e565b91506116b782611b48565b604082019050919050565b60006116cf60188361188e565b91506116da82611b97565b602082019050919050565b6116ee816119f2565b82525050565b600060208201905061170960008301846115f5565b92915050565b600060608201905061172460008301866115f5565b61173160208301856115f5565b61173e60408301846116e5565b949350505050565b600060408201905061175b60008301856115f5565b61176860208301846116e5565b9392505050565b60006020820190506117846000830184611604565b92915050565b600060208201905081810360008301526117a381611613565b9050919050565b600060208201905081810360008301526117c381611636565b9050919050565b600060208201905081810360008301526117e381611659565b9050919050565b600060208201905081810360008301526118038161167c565b9050919050565b600060208201905081810360008301526118238161169f565b9050919050565b60006020820190508181036000830152611843816116c2565b9050919050565b600060208201905061185f60008301846116e5565b92915050565b600060408201905061187a60008301856116e5565b61188760208301846116e5565b9392505050565b600082825260208201905092915050565b60006118aa826119f2565b91506118b5836119f2565b9250827fffffffffffffffffffffffffffffffffffffffffffffffffffffffffffffffff038211156118ea576118e9611a20565b5b828201905092915050565b6000611900826119f2565b915061190b836119f2565b92508261191b5761191a611a4f565b5b828204905092915050565b6000611931826119f2565b915061193c836119f2565b9250817fffffffffffffffffffffffffffffffffffffffffffffffffffffffffffffffff048311821515161561197557611974611a20565b5b828202905092915050565b600061198b826119f2565b9150611996836119f2565b9250828210156119a9576119a8611a20565b5b828203905092915050565b60006119bf826119d2565b9050919050565b60008115159050919050565b600073ffffffffffffffffffffffffffffffffffffffff82169050919050565b6000819050919050565b6000611a0782611a0e565b9050919050565b6000611a19826119d2565b9050919050565b7f4e487b7100000000000000000000000000000000000000000000000000000000600052601160045260246000fd5b7f4e487b7100000000000000000000000000000000000000000000000000000000600052601260045260246000fd5b7f4f776e61626c653a206e6577206f776e657220697320746865207a65726f206160008201527f6464726573730000000000000000000000000000000000000000000000000000602082015250565b7f546f6b656e207472616e73666572206661696c65640000000000000000000000600082015250565b7f4f776e61626c653a2063616c6c6572206973206e6f7420746865206f776e6572600082015250565b7f4d757374207374616b65203e203020746f6b656e730000000000000000000000600082015250565b7f436f6e747261637420646f6573206e6f74206861766520656e6f75676820746f60008201527f6b656e7320666f722063757272656e7420726577617264207261746500000000602082015250565b7f4d757374207769746864726177203e203020746f6b656e730000000000000000600082015250565b611bc9816119b4565b8114611bd457600080fd5b50565b611be0816119c6565b8114611beb57600080fd5b50565b611bf7816119f2565b8114611c0257600080fd5b5056fea264697066735822122054fedd30a27e0f55963ad717642db57fff582953b1db8ca637eb3b2daaa8096064736f6c63430008040033",
  "immutableReferences": {},
  "source": "//SPDX-License-Identifier: MIT\r\n\r\nimport \"@openzeppelin/contracts/token/ERC20/IERC20.sol\";\r\nimport \"@openzeppelin/contracts/access/Ownable.sol\";\r\n\r\npragma solidity 0.8.4;\r\n\r\ncontract Rewards is Ownable{\r\n    IERC20 public token;\r\n\r\n    //total reward tokens will be 150,000,000 given out\r\n    uint public rewardRate = 0;\r\n    uint public rewardsDuration = 365 days;\r\n    uint public startRewardsTime;\r\n    uint public lastUpdateTime;\r\n    uint public lastRewardTimestamp;\r\n    uint public rewardPerTokenStored;\r\n\r\n    // last time\r\n    uint private stakedSupply = 0;\r\n    uint private claimedRewards = 0;\r\n\r\n    mapping(address => uint) public userRewardPerTokenPaid;\r\n    mapping(address => uint) public rewards;\r\n    mapping(address => uint) private _balances;\r\n\r\n    event Staked(address indexed user, uint amountStaked);\r\n    event Withdrawn(address indexed user, uint amountWithdrawn);\r\n    event RewardsClaimed(address indexed user, uint rewardsClaimed);\r\n    event RewardAmountSet(uint rewardRate, uint duration);\r\n\r\n    constructor(address  _tokenAddress, uint _startRewards) {\r\n        token = IERC20(_tokenAddress);\r\n        startRewardsTime = _startRewards;\r\n    }\r\n\r\n    modifier updateReward(address account) {\r\n        rewardPerTokenStored = rewardPerToken();\r\n        lastUpdateTime = rewardTimestamp();\r\n        if (account != address(0)){\r\n            rewards[account] = earned(account);\r\n            userRewardPerTokenPaid[account] = rewardPerTokenStored;\r\n        }\r\n        _;\r\n    }\r\n\r\n    //function to check if staking rewards have ended\r\n    function rewardTimestamp() internal view returns (uint) {\r\n        if (block.timestamp < lastRewardTimestamp) {\r\n            return block.timestamp;\r\n        }\r\n        else {\r\n            return lastRewardTimestamp;\r\n        }\r\n    }\r\n\r\n    //function to check if staking rewards have started\r\n    function startTimestamp() internal view returns (uint) {\r\n        if (startRewardsTime > lastUpdateTime) {\r\n            return startRewardsTime;\r\n        }\r\n        else {\r\n            return lastUpdateTime;\r\n        }\r\n    }\r\n\r\n    function balanceOf(address account) external view returns (uint) {\r\n        return _balances[account];\r\n    }\r\n\r\n\r\n    function totalStaked() public view returns (uint) {\r\n        return stakedSupply;\r\n    }\r\n\r\n    function totalClaimed() public view returns (uint) {\r\n        return claimedRewards;\r\n    }\r\n\r\n    function rewardPerToken() public view returns (uint) {\r\n        if (stakedSupply == 0 || block.timestamp < startRewardsTime) {\r\n            return 0;\r\n        }\r\n        return rewardPerTokenStored + (\r\n            (rewardRate * (rewardTimestamp()- startTimestamp()) * 1e18 / stakedSupply)\r\n        );\r\n    }\r\n\r\n    function earned(address account) public view returns (uint) {\r\n        return (\r\n            _balances[account] * (rewardPerToken() - userRewardPerTokenPaid[account]) / 1e18\r\n        ) + rewards[account];\r\n    }\r\n\r\n    function stake(uint _amount) external updateReward(msg.sender) {\r\n        require(_amount > 0, \"Must stake > 0 tokens\");\r\n        stakedSupply += _amount;\r\n        _balances[msg.sender] += _amount;\r\n        require(token.transferFrom(msg.sender, address(this), _amount), \"Token transfer failed\");\r\n        emit Staked(msg.sender, _amount);\r\n    }\r\n\r\n    function withdraw(uint _amount) public updateReward(msg.sender) {\r\n        require(_amount > 0, \"Must withdraw > 0 tokens\");\r\n        stakedSupply -= _amount;\r\n        _balances[msg.sender] -= _amount;\r\n        require(token.transfer(msg.sender, _amount), \"Token transfer failed\");\r\n        emit Withdrawn(msg.sender, _amount);\r\n    }\r\n\r\n    function getReward() public updateReward(msg.sender) {\r\n        uint reward = rewards[msg.sender];\r\n        if (reward > 0) {\r\n            rewards[msg.sender] = 0;\r\n            claimedRewards += reward;\r\n            require(token.transfer(msg.sender, reward), \"Token transfer failed\");\r\n            emit RewardsClaimed(msg.sender, reward);\r\n        }\r\n    }\r\n\r\n    function exit() external {\r\n        withdraw(_balances[msg.sender]);\r\n        getReward();\r\n    }\r\n\r\n    //owner only functions\r\n\r\n    function setRewardAmount(uint reward, uint _rewardsDuration) onlyOwner external updateReward(address(0)) {\r\n        rewardsDuration = _rewardsDuration;\r\n        rewardRate = reward / rewardsDuration;\r\n        uint balance = token.balanceOf(address(this)) - stakedSupply;\r\n\r\n        require(rewardRate <= balance / rewardsDuration, \"Contract does not have enough tokens for current reward rate\");\r\n\r\n        lastUpdateTime = block.timestamp;\r\n        if (block.timestamp < startRewardsTime) {\r\n            lastRewardTimestamp = startRewardsTime + rewardsDuration;\r\n        }\r\n        else {\r\n            lastRewardTimestamp = block.timestamp + rewardsDuration;\r\n        }\r\n        emit RewardAmountSet(rewardRate, _rewardsDuration);\r\n    }\r\n}",
  "sourcePath": "C:\\Users\\hp\\Desktop\\New project\\gemach-dao\\src\\contracts\\rewards.sol",
  "compiler": {
    "name": "solc",
    "version": "0.8.4+commit.c7e474f2.Emscripten.clang"
  },
  "schemaVersion": "3.4.3",
  "updatedAt": "2021-12-11T10:51:26.818Z",
  "networkType": "ethereum",
  "devdoc": {
    "kind": "dev",
    "methods": {
      "owner()": {
        "details": "Returns the address of the current owner."
      },
      "renounceOwnership()": {
        "details": "Leaves the contract without owner. It will not be possible to call `onlyOwner` functions anymore. Can only be called by the current owner. NOTE: Renouncing ownership will leave the contract without an owner, thereby removing any functionality that is only available to the owner."
      },
      "transferOwnership(address)": {
        "details": "Transfers ownership of the contract to a new account (`newOwner`). Can only be called by the current owner."
      }
    },
    "version": 1
  },
  "userdoc": {
    "kind": "user",
    "methods": {},
    "version": 1
  }
}